S01400004C696E655F54726163696E672E7372656361
S113000045C000004BC0000049C0000047C00000CC
S113001045C0000043C0000041C000003FC00000D4
S11300203DC000003BC0000039C0000037C00000E4
S113003035C0000033C0000031C000002FC00000F4
S11300402DC000002BC0000029C0000027C0000004
S113005025C0000023C0000021C000001FC0000014
S11300601DC000001BC0000019C0000017C0000024
S113007015C0000013C0000011C000000FC0000034
S11300800DC000000BC0000009C0000011241FBEF9
S1130090CFEFD0E1DEBFCDBF02D047C0B1CFCF9309
S11300A0DF931F92CDB7DEB7CE0101961CD0CE01EF
S11300B0019637D02FEF8FE493EC2150804090408D
S11300C0E1F700C00000CE0101961FD02FEF87EAB0
S11300D091E6215080409040E1F700C00000CE013D
S11300E001961FD0E4CF82B18F6082B983B183B906
S11300F080E687BB8FB5826A8FBD8EB58B618EBD5E
S113010089EF90E097BD86BD089583B1856083B97A
S113011083B183B988EF90E09BBD8ABD99BD88BD4A
S1110120089583B1807F83B90895F894FFCFCA
S9030000FC
