:1000000046C000006BC0000069C0000067C000006F
:1000100065C0000063C0000061C000005FC0000058
:100020005DC000005BC0000059C0000057C0000068
:1000300055C0000053C0000051C00000BCC000000B
:100040004DC000004BC0000049C0000047C0000088
:1000500045C0000043C0000041C000003FC0000098
:100060003DC000003BC0000039C0000037C00000A8
:1000700035C0000033C0000031C000002FC00000B8
:100080002DC000002BC0000029C00000D8021124A0
:100090001FBECFEFD0E1DEBFCDBF12E0A0E0B1E0E8
:1000A000EEE5F0E100E00BBF02C007900D92AA3828
:1000B000B107D9F722E0AAE8B2E001C01D92A53D40
:1000C000B207E1F710E0C7E4D0E003C02197FE01DA
:1000D000E0D4C634D107D1F7EED0BFC791CFFC0131
:1000E00011821082628387B1876487B986B1876E77
:1000F00086B983B78C6083BF87B7836087BF89EF7A
:1001000081BF78940895CF93DF93EC0164B175B10A
:100110007C836B83072E000C880B990BCBD320E0DC
:1001200030E040EA50E452D420E030EC4FE754E4B1
:1001300026D36D837E838F83988723E331E444E362
:100140005EE31DD369877A878B879C8780D3CB0139
:10015000DF91CF91089560E070E0CB010895FC013C
:100160004115510561057105F9F48281938101976B
:1001700093838283892B31F481E08183848195810B
:100180009383828386819781009721F001979783DB
:1001900086830895CF010084F185E02D41E050E091
:1001A00060E070E0099508954130510561057105E1
:1001B00009F4108208951F920F920FB60F92112426
:1001C0000BB60F922F933F934F935F936F937F9351
:1001D0008F939F93AF93BF93EF93FF938091D3023D
:1001E0009091D40201969093D4028093D302E0912F
:1001F0000801F091090140E050E0BA0180E091E08F
:100200000995FF91EF91BF91AF919F918F917F9150
:100210006F915F914F913F912F910F900BBE0F9077
:100220000FBE0F901F901895CF93DF93809101011F
:10023000813009F03DC0E0E0F1E011828081811160
:1002400037C08CE892E05FDF80938A0290938B0244
:100250009F938F938AE091E09F938F93C1EAD2E0BE
:10026000DF93CF931FD4BE018BE992E06CD28091D3
:10027000A0028F9380919F028F9383E191E09F93DF
:100280008F93DF93CF930ED4BE018BE992E05BD2C4
:10029000E0E0F1E081E0808388EE93E0978386835D
:1002A0008DB79EB70C960FB6F8949EBF0FBE8DBF4C
:1002B000DF91CF9108958FEA90E0909309018093A8
:1002C0000801E1E6F0E08081807E80831092620088
:1002D0008EE0E2E2F1E0A1EAB2E001900D928A95AF
:1002E000E1F761EA72E08BE992E02DD29DDF80B107
:1002F00090E08F719093A00280939F0284309105CB
:10030000D9F480B18F71843089F768E28AE992E08C
:100310007BD18FE1E0E3F1E0A1EAB2E001900D9240
:100320008A95E1F761EA72E08BE992E00CD280B144
:100330008F71843051F3DACF009719F580B190E0D6
:100340008F71892B99F64CE362E08AE992E06BD1D8
:1003500042E361E08AE992E084D18FE1EFE4F1E0E9
:10036000A1EAB2E001900D928A95E1F761EA72E0AC
:100370008BE992E0E8D180B190E08F71892B19F37D
:10038000B5CF8230910511F580B18F71823009F0BF
:10039000ADCF43E262E08AE992E045D149E161E014
:1003A0008AE992E040D18FE1EEE6F1E0A1EAB2E025
:1003B00001900D928A95E1F761EA72E08BE992E093
:1003C000C2D180B18F71823021F390CF88309105F6
:1003D00011F580B18F71883009F088CF48E261E073
:1003E0008AE992E020D14EE162E08AE992E01BD1F5
:1003F0008FE1EDE8F1E0A1EAB2E001900D928A957B
:10040000E1F761EA72E08BE992E09DD180B18F71F2
:10041000883021F36BCF8730910511F580B18F7152
:10042000873009F063CF4CE362E08AE992E0FBD0C9
:1004300041E061E08AE992E014D18FE1ECEAF1E079
:10044000A1EAB2E001900D928A95E1F761EA72E0CB
:100450008BE992E078D180B18F71873021F346CF5C
:1004600081309105C9F44CE362E08AE992E0DBD087
:100470004EE161E08AE992E0F4D080E2EBECF1E059
:10048000A1EAB2E001900D928A95E1F761EA72E08B
:100490008BE992E058D12ACF80319105C9F44CE321
:1004A00061E08AE992E0BFD04EE162E08AE992E041
:1004B000D8D080E2EBEEF1E0A1EAB2E001900D923B
:1004C0008A95E1F761EA72E08BE992E03CD10ECFC8
:1004D0008E309105C9F44CE362E08AE992E0A3D042
:1004E0004EE161E08AE992E0BCD080E2EBE0F2E02C
:1004F000A1EAB2E001900D928A95E1F761EA72E01B
:100500008BE992E020D1F2CE8E319105C9F44CE313
:1005100062E08AE992E087D04EE161E08AE992E008
:10052000A0D080E2EBE2F2E0A1EAB2E001900D920D
:100530008A95E1F761EA72E08BE992E004D1D6CEC8
:100540008F309105C9F446E462E08AE992E06BD00D
:100550004EE161E08AE992E084D080E2EBE4F2E0EF
:10056000A1EAB2E001900D928A95E1F761EA72E0AA
:100570008BE992E0E8D0BACE039709F0B7CE4CE30E
:1005800062E08AE992E04FD043E261E08AE992E0DA
:100590004AD08FE1EBE6F2E0A1EAB2E001900D92E1
:1005A0008A95E1F761EA72E08BE992E0CCD09ECEC9
:1005B00047E660E08DE992E072D047E661E08BE9C2
:1005C00092E06DD08AE992E008D089E992E0CFD03C
:1005D00065E08CE892E083CD0895E4E6F0E0808168
:1005E0008F608083E5E6F0E08081807F808380E615
:1005F00087BB8FB5826A8FBD8EB58A618EBD88EC50
:1006000090E097BD86BD0895E5E6F0E080818560C5
:1006100080838081857F8083660F70E07BBD6ABDAB
:1006200079BD68BD0895613069F4E5E6F0E0808148
:100630008160808380818D7F8083440F50E05BBD2B
:100640004ABD0895623061F4E5E6F0E0808184609F
:1006500080838081877F8083440F50E059BD48BDEF
:100660000895613069F4E5E6F0E08081826080837E
:1006700080818E7F8083440F50E05BBD4ABD08952A
:10068000623061F4E5E6F0E08081886080838081FB
:100690008B7F8083440F50E059BD48BD0895FC0115
:1006A0006083611110C083B1836083B91098119A7F
:1006B00049B91BB88AB188618AB9E5E9F0E080815F
:1006C000866080830895613099F482B38C6082BB28
:1006D0008A988B9A4093990010929B00EAE9F0E087
:1006E000808188618083EDE9F0E08081866080838D
:1006F0000895FC018081811103C08BB1807208953F
:10070000813021F480919B008072089508951F9399
:10071000CF93DF93EC01162FCE01EBDF8823E1F3BB
:100720008881811103C01CB95D9A09C0813039F4F8
:1007300010939C00EBE9F0E0808180628083DF9180
:10074000CF911F9108950F931F93CF93DF93EB01E8
:100750006881662339F08C012196C801D8DF699140
:100760006111FBCFDF91CF911F910F910895169AE0
:100770001798EAE8F0E080818560808308950CD0C6
:10078000EBC0E3D040F0DAD030F021F45F3F19F055
:10079000CCC0511115C1CFC0F0D098F39923C9F343
:1007A0005523B1F3951B550BBB27AA276217730777
:1007B000840738F09F5F5F4F220F331F441FAA1F2B
:1007C000A9F333D00E2E3AF0E0E830D091505040EB
:1007D000E695001CCAF729D0FE2F27D0660F771F99
:1007E000881FBB1F261737074807AB07B0E809F07B
:1007F000BB0B802DBF01FF2793585F4F2AF09E3F10
:10080000510568F092C0DCC05F3FECF3983EDCF32A
:10081000869577956795B795F7959F5FC9F7880F88
:10082000911D9695879597F90895E1E0660F771FDA
:10083000881FBB1F621773078407BA0720F0621B6B
:10084000730B840BBA0BEE1F88F7E095089504D064
:100850006894B111B5C0089598D088F09F5790F072
:10086000B92F9927B751A0F0D1F0660F771F881FD5
:10087000991F1AF0BA95C9F712C0B13081F09FD014
:10088000B1E008959CC0672F782F8827B85F39F0B2
:10089000B93FCCF3869577956795B395D9F73EF434
:1008A00090958095709561957F4F8F4F9F4F0895DC
:1008B000E89409C097FB3EF49095809570956195FA
:1008C0007F4F8F4F9F4F9923A9F0F92F96E9BB27B0
:1008D0009395F695879577956795B795F111F8CF2C
:1008E000FAF4BB0F11F460FF1BC06F5F7F4F8F4F97
:1008F0009F4F16C0882311F096E911C0772321F08D
:100900009EE8872F762F05C0662371F096E8862F24
:1009100070E060E02AF09A95660F771F881FDAF77B
:10092000880F9695879597F9089597F99F6780E8BE
:1009300070E060E008959FEF80EC089500240A9431
:100940001616170618060906089500240A941216AA
:100950001306140605060895092E0394000C11F4DD
:10096000882352F0BB0F40F4BF2B11F460FF04C08A
:100970006F5F7F4F8F4F9F4F089557FD9058440FE3
:10098000551F59F05F3F71F04795880F97FB991FEE
:1009900061F09F3F79F087950895121613061406AB
:1009A000551FF2CF4695F1DF08C016161706180638
:1009B000991FF1CF86957105610508940895E89413
:1009C000BB2766277727CB0197F908950BD0C4CFB3
:1009D000B5DF28F0BADF18F0952309F0A6CFABCF2A
:1009E0001124EECFCADFA0F3959FD1F3950F50E00D
:1009F000551F629FF001729FBB27F00DB11D639FD1
:100A0000AA27F00DB11DAA1F649F6627B00DA11D76
:100A1000661F829F2227B00DA11D621F739FB00D1C
:100A2000A11D621F839FA00D611D221F749F33278C
:100A3000A00D611D231F849F600D211D822F762F25
:100A40006A2F11249F5750408AF0E1F088234AF022
:100A5000EE0FFF1FBB1F661F771F881F915050406E
:100A6000A9F79E3F510570F060CFAACF5F3FECF32E
:100A7000983EDCF3869577956795B795F795E7955A
:100A80009F5FC1F7FE2B880F911D9695879597F96B
:100A90000895EE0FFF1F0024001C0BBE0790F69177
:100AA000E02D09940F931F93CF93DF93CDB7DEB75B
:100AB0002E970FB6F894DEBF0FBECDBF0D891E89ED
:100AC00086E08C831A8309838FEF9FE79E838D8353
:100AD000AE01475E5F4F6F89788DCE01019610D0D1
:100AE000EF81F885E00FF11F10822E960FB6F89473
:100AF000DEBF0FBECDBFDF91CF911F910F91089543
:100B00002F923F924F925F926F927F928F929F921D
:100B1000AF92BF92CF92DF92EF92FF920F931F930B
:100B2000CF93DF93CDB7DEB72B970FB6F894DEBF28
:100B30000FBECDBF6C017B018A01FC0117821682BA
:100B4000838181FFBFC1CE0101963C01F6019381F3
:100B5000F70193FD859193FF81917F01882309F42B
:100B6000ADC1853239F493FD859193FF81917F0169
:100B7000853221F4B60190E0D6D1E8CF912C212C1A
:100B8000312CFFE1F315D8F08B3279F038F4803254
:100B900079F08332A1F4232D20611DC08D3261F0E4
:100BA000803369F4232D216016C0832D8260382E96
:100BB000E32DE4603E2E2AC0F32DF8601DC037FC03
:100BC0002DC020ED280F2A3040F08E32B9F436FCCB
:100BD00075C1232D2064322E19C036FE06C08AE06E
:100BE000989E200D1124922E11C0EAE02E9E200D19
:100BF0001124222EF32DF0623F2E08C08C3621F4F2
:100C0000832D8068382E02C0883641F4F70193FDA9
:100C1000859193FF81917F018111B3CF982F9F7DA3
:100C20009554933028F40C5F1F4F9FE399830DC0B8
:100C3000833631F0833771F0833509F055C020C019
:100C4000F801808189830E5F1F4F88248394912C43
:100C5000530112C02801F2E04F0E511CF801A08090
:100C6000B18036FE03C0692D70E002C06FEF7FEFE8
:100C7000C5014ED14C018201F32DFF773F2E15C0E7
:100C8000280122E0420E511CF801A080B18036FEFE
:100C900003C0692D70E002C06FEF7FEFC5012DD159
:100CA0004C01F32DF0683F2E820133FC19C0822DD8
:100CB00090E088169906A0F4B60180E290E033D166
:100CC0002A94F5CFF50137FC859137FE81915F01BC
:100CD000B60190E028D121102A9421E0821A9108CF
:100CE0008114910479F7E1C0843611F0893639F521
:100CF000F80137FE07C060817181828193810C5FAA
:100D00001F4F08C060817181072E000C880B990B62
:100D10000E5F1F4FF32DFF763F2E97FF09C0909572
:100D20008095709561957F4F8F4F9F4FF0683F2E54
:100D30002AE030E0A30133D1882E861844C08537DD
:100D400031F4232D2F7EB22E2AE030E025C0932DE2
:100D5000997FB92E8F36C1F018F4883579F0AEC07E
:100D6000803719F0883721F0A9C0E92FE061BE2E45
:100D7000B4FE0DC0FB2DF460BF2E09C034FE0AC0C6
:100D8000292F2660B22E06C028E030E005C020E101
:100D900030E002C020E132E0F801B7FE07C0608118
:100DA0007181828193810C5F1F4F06C060817181C8
:100DB00080E090E00E5F1F4FA301F1D0882E8618CF
:100DC000FB2DFF773F2E36FE0DC0232D2E7FA22E4A
:100DD000891458F434FE0BC032FC09C0832D8E7E7A
:100DE000A82E05C0B82CA32C03C0B82C01C0B92C68
:100DF000A4FE0FC0FE01E80DF11D8081803321F4B7
:100E00009A2D997EA92E09C0A2FE06C0B394B39470
:100E100004C08A2D867809F0B394A3FC10C0A0FE0C
:100E200006C0B21480F4280C922C9B180DC0B2148A
:100E300058F4B60180E290E076D0B394F8CFB214C3
:100E400018F42B1802C0982C212CA4FE0FC0B60158
:100E500080E390E068D0A2FE16C0A1FC03C088E742
:100E600090E002C088E590E0B6010CC08A2D86783B
:100E700051F0A1FE02C08BE201C080E2A7FC8DE22E
:100E8000B60190E050D0891430F4B60180E390E0D0
:100E90004AD09A94F8CF8A94F301E80DF11D80812D
:100EA000B60190E040D08110F6CF222009F44ECE5A
:100EB000B60180E290E037D02A94F7CFF601868120
:100EC000978102C08FEF9FEF2B960FB6F894DEBF8D
:100ED0000FBECDBFDF91CF911F910F91FF90EF908B
:100EE000DF90CF90BF90AF909F908F907F906F904A
:100EF0005F904F903F902F900895FC0105906150B6
:100F000070400110D8F7809590958E0F9F1F08951F
:100F1000FC016150704001900110D8F780959095C8
:100F20008E0F9F1F08950F931F93CF93DF93FB01A5
:100F3000238121FD03C08FEF9FEF2CC022FF16C03D
:100F400046815781248135814217530744F4A0819B
:100F5000B1819D012F5F3F4F318320838C93268188
:100F600037812F5F3F4F3783268314C08B01EC01FD
:100F7000FB010084F185E02D0995892BE1F6D8016C
:100F800016968D919C911797019617969C938E9328
:100F90001697CE01DF91CF911F910F910895FA011D
:100FA000AA27283051F1203181F1E8946F936E7FA8
:100FB0006E5F7F4F8F4F9F4FAF4FB1E03ED0B4E099
:100FC0003CD0670F781F891F9A1FA11D680F791FDA
:100FD0008A1F911DA11D6A0F711D811D911DA11DEB
:100FE00020D009F468943F912AE0269F11243019FB
:100FF000305D3193DEF6CF010895462F4770405D96
:101000004193B3E00FD0C9F7F6CF462F4F70405D44
:101010004A3318F0495D31FD4052419302D0A9F79F
:10102000EACFB4E0A6959795879577956795BA9599
:10103000C9F700976105710508959B01AC010A2E5F
:1010400006945795479537952795BA95C9F7620F36
:0E105000731F841F951FA01D0895F894FFCFF5
:10105E000000640064000000AB004241543A256475
:10106E000D0A0056616C203A203078253032580D2A
:10107E000A0053797374656D204F6E21200D0A009E
:10108E006C65667433302C20726967687433302057
:10109E002F2076616C203A20307830340D0A006CA7
:1010AE0065667435302C2072696768743430202F71
:1010BE002076616C203A20307830300D0A006C6555
:1010CE00667433302C2072696768743130202F209B
:1010DE0076616C203A20307830320D0A006C6566ED
:1010EE007431302C2072696768743330202F20766B
:1010FE00616C203A20307830380D0A006C656674C9
:10110E0035302C2072696768743230202F2076615A
:10111E006C203A20307830370D0A006C65667435D5
:10112E00302C2072696768742D3230202F20766142
:10113E006C203A20307830310D0A006C6566742DC3
:10114E0032302C2072696768743530202F2076611A
:10115E006C203A20307831300D0A006C656674359B
:10116E00302C2072696768742D3230202F20766102
:10117E006C203A20307830450D0A006C6566743567
:10118E00302C2072696768742D3230202F207661E2
:10119E006C203A20307831450D0A006C6566743546
:1011AE00302C2072696768742D3230202F207661C2
:1011BE006C203A20307830460D0A006C6566743526
:1011CE00302C2072696768743230202F2076616C63
:0A11DE00203A20307830460D0A0058
:00000001FF
